:020000040800F2
:10000000D85700205D020008B95600086942000870
:1000100039560008450F0008156B00080000000065
:100020000000000000000000000000009D0100082A
:100030004B11000800000000F9010008E56100080C
:1000400077020008770200087702000877020008AC
:10005000770200087702000877020008770200089C
:10006000770200087702000877020008770200088C
:10007000770200087702000877020008770200087C
:10008000770200087702000877020008770200086C
:100090007702000877020008770200084D11000877
:1000A000770200087702000877020008770200084C
:1000B0007702000877020008C9620008770200088A
:1000C000770200087702000877020008770200082C
:1000D00077020008D96A000877020008F56A00086C
:1000E000770200087702000877020008770200080C
:1000F00077020008F962000877020008770200081A
:100100007702000877020008D96200087702000829
:10011000BD65000877020008E96200087702000860
:10012000211000087702000831100008770200084B
:1001300077020008000000000000000077020008BD
:1001400077020008770200087702000877020008AB
:10015000770200087702000877020008056B0008A4
:10016000770200087702000877020008770200088B
:10017000770200087702000800000000000000007D
:100180007702000877020008DFF80CD000F056FC78
:1001900000480047B1940008D85700202C4B19683C
:1001A0000868B0E8F04F80F30988BFF36F8F4FF015
:1001B000000080F3118870470000000008480068C4
:1001C000006880F308884FF0000080F3148862B65E
:1001D00061B6BFF34F8FBFF36F8F00DF00BF00BF6B
:1001E00008ED00E0DFF80C00016841F470010160E7
:1001F000704700BF88ED00E0EFF30980BFF36F8F19
:10020000134B1A681EF0100F08BF20ED108A20E96A
:10021000F04F106009B44FF0500080F31188BFF325
:100220004F8FBFF36F8F0BF00FFB4FF0000080F389
:10023000118809BC19680868B0E8F04F1EF0100F6B
:1002400008BFB0EC108A80F30988BFF36F8F704746
:100250006C010020EFF305807047000006488047DE
:1002600006480047FEE7FEE7FEE7FEE7FEE7FEE79B
:10027000FEE7FEE7FEE7FEE7B56200088901000839
:100280002DE9F05F0546002092469B4688460646CB
:10029000814640241BE0284641464746224600F05E
:1002A000C0FA53465A46C01A914110D31146184617
:1002B000224600F0A7FA2D1A67EB01084F462246A6
:1002C0000120002100F09EFA17EB00094E41201E8C
:1002D000A4F10104DFDC484631462A464346BDE826
:1002E000F09F2DE9F0410024061B254671F1000620
:1002F00005DA01240027D0EB070067EB0101161E89
:1003000073F1000605DA0027D2EB0702012567EB3F
:100310000303FFF7B5FF86460E4617469C46AC42E0
:1003200004D00025D0EB050E65EB010624B10020BA
:10033000D2EB000760EB030C704631463A46634649
:10034000BDE8F081202A06DBCB17203A41FA02F003
:1003500043EAE07306E041FA02F3D040C2F1200222
:10036000914008431946704710B5431A934209D289
:100370008318881803E010F8011D03F8011D521EB0
:10038000F9D210BD40EA01039B0703D009E008C978
:10039000121F08C0042AFAD203E011F8013B00F84A
:1003A000013B521EF9D210BDD2B201E000F8012B80
:1003B000491EFBD270470022F6E710B513460A46E5
:1003C00004461946FFF7F0FF204610BD30B504463D
:1003D0000020034600E05B1C934203D2E05CCD5C4E
:1003E000401BF8D030BD2DE9FE4F804681EA030066
:1003F000C00F0C46009021F0004123F00045B8EBFF
:100400000200A94105D24046214690461C460B46B3
:10041000024623F00040104347D0270DC7F30A00DF
:10042000C3F30A510290401A019040286BDAC3F3DB
:10043000130040F4801B0098924620B10023D2EBB9
:10044000030A63EB0B0B01985946C0F1400250467A
:1004500000F0D8F906460D4650465946019AFFF776
:1004600071FF10EB08006141002487EA115284EA11
:10047000E7731A4340D0009A62B3019A012A4FEA07
:10048000075215DC001B61EB02014FF0004202EA4B
:100490000752CDE90042001C41F5801132462B463F
:1004A00000F015FA03B0BDE8F08F40462146F9E7A9
:1004B000001B61EB0201001C41F5801300185B4139
:1004C0002018A2F5001747EB030140EAD570B619D2
:1004D0006D4111E06D084FEA360645EAC0754FEAF6
:1004E0000752001B61EB0201001C41F58011490815
:1004F0004FEA30000019514132462B4603B0BDE8A7
:10050000F04F00F0D5B90098012240000023D0EB55
:10051000020263EBE073009821464FEAE074B8EB07
:10052000000061EB0401E9E783F000435BE781F041
:10053000004158E72DE9FE4F81EA030404F000442E
:1005400021F0004100944FF0000B23F0004350EAEB
:1005500001045ED052EA03045BD0C3F30A54C1F332
:100560000A552C44A4F2F3340194A0FB0254C1F3C5
:10057000130141F48011C3F3130343F4801301FB0F
:10058000024400FB034E840A970A44EA815447EA76
:100590008357A4FB076802958D0A05FB07854FEA80
:1005A000932C04FB0C542705029D4FEA065847EA9A
:1005B0001637B5EB08056EEB070C870E920E47EA6F
:1005C000811742EA8312A7FB0201B6EB0B0164EB31
:1005D00000042B0D43EA0C335E1844EB1C50DA4642
:1005E0005146E7FB0201C5F313044FEA0B3343EA1C
:1005F00014534FEA0432019C43EA0603A4F10C04AD
:100600000294009CCDE900B400F061F903B0BDE8AC
:10061000F08F00200146F9E72DE9F04D81EA03044F
:1006200004F0004B21F0004514464FF0000A23F07F
:10063000004150EA050220D054EA01021DD0C5F362
:100640000A570246C5F31303C1F31300C1F30A5658
:1006500040F4801543F48013A7EB0608101BD64620
:1006600008F2FD3873EB050002D308F1010801E040
:1006700092185B41B8F1000F03DA00200146BDE893
:10068000F08D00204FF48011064684460EE0171BC3
:1006900073EB050705D3121B63EB050306434CEA16
:1006A000010C49084FEA300092185B4150EA0107FB
:1006B000EDD152EA030012D082EA040083EA050178
:1006C000084305D0101BAB4106D20122002306E0EF
:1006D00000224FF0004302E06FF0010253101AEBCA
:1006E00006004CEB085110EB0A0041EB0B01BDE892
:1006F000F04D00F0DDB80EB5C10F80EAE07008449F
:10070000CA07002140F233438DE80E000A460B462B
:1007100000F0DDF803B000BD00F0004230F0004012
:100720000AD0C10D01F56071C0F3160042EA015113
:10073000C20840071143704700200146704700007F
:1007400030B5041E71F1000404DB4FF00044404258
:1007500064EB0101141E73F1000405DB1C464FF02D
:100760000043524263EB04038B4208BF824230BD18
:1007700030B5041E71F1000404DB4FF00044404228
:1007800064EB0101141E73F1000405DB1C464FF0FD
:100790000043524263EB0403994208BF904230BDCC
:1007A00001F0004330B421F0004150EA010206D0CC
:1007B0000A0DA2F56072C1F31301002A02DC30BCFD
:1007C00000207047440F44EAC104C100E01830BC67
:1007D00000EBC25000F035B830B50B4601460020A2
:1007E0002022012409E021FA02F59D4205D303FAF3
:1007F00002F5491B04FA02F52844151EA2F1010274
:10080000F1DC30BD202A04DB203A00FA02F100209E
:1008100070479140C2F1200320FA03F3194390403E
:100820007047202A04DB203A21FA02F000217047A9
:1008300021FA02F3D040C2F1200291400843194648
:1008400070470029A8BF7047401C490008BF20F02E
:100850000100704710B4B0FA80FC00FA0CF050EAC6
:10086000010404BF10BC704749B1CCF1200421FA47
:1008700004F411FA0CF118BF012121430843A3EB42
:100880000C01CB1D4FEA00614FEA102042BF00204F
:1008900010BC704700EBC35010440029A4BF10BC2B
:1008A0007047401C490008BF20F0010010BC704791
:1008B00010B5141E73F1000408DA401C41F1000168
:1008C00092185B411A4301D120F0010010BD2DE9BF
:1008D000F04D92469B4611B1B1FA81F202E0B0FAB6
:1008E00080F220329046FFF78DFF04460F4640EA23
:1008F0000A0041EA0B0153465A46084313D01146F9
:1009000053EA010019D0C8F140025046FFF789FFB1
:1009100005460E46504659464246FFF773FF0843C8
:1009200005D0012004E020463946BDE8F08D0020C6
:10093000054346EAE0762C4337430A986305E40A08
:10094000A0EB08000022FD0A44EA47540A3002D511
:1009500000200146E9E7010510196941DDE9084574
:1009600000196941BDE8F04DA2E72DE9F04D0023E3
:100970001A461B1A8A4103DB00200146BDE8F08DB0
:10098000C1F30A52C1F3130141F480154FF0000B7B
:10099000D10702D100186D41521E0027044640F2D3
:1009A000FF11384601EB620A3E46804602460020AF
:1009B0004FF48011FFF735FFC2197141BB1846EBA8
:1009C0000100B4EB030C75EB000C04D3E41A65EBE7
:1009D000000517460E46241908F101006D418046B6
:1009E0003428E3DDF91946EB0600091BA84103D2C0
:1009F0004FF0FF32134601E0002213461BEB0700C5
:100A000046EB0A51BDE8F04DFFF752BFC1F30A5261
:100A1000C1F3130140F2FF3341F480119A4202DA2C
:100A200000200146704740F233439A42A2F233421B
:100A300002DC5242FFF7F5BEFFF7E4BE064C074D5D
:100A400006E0E06840F0010394E80700984710349E
:100A5000AC42F6D3FFF79CFB44DD000864DD0008E0
:100A600070B58C1810F8015B15F0070301D110F870
:100A7000013B2A1106D110F8012B03E010F8016B9D
:100A800001F8016B5B1EF9D12B0705D40023521E20
:100A90000DD401F8013BFAE710F8013BCB1A921C88
:100AA00003E013F8015B01F8015B521EF9D5A14286
:100AB000D8D3002070BD70B50546AC6B206C00F03B
:100AC000500050BB206C40F40070206420688068A7
:100AD00000F04050E8B9207ED8B92068C06A00F420
:100AE000700020B12068806800F4806088B92068B8
:100AF000406820F0200021684860206C20F480705D
:100B00002064206C00F4805018B9206C40F0010083
:100B10002064204600F01EFC0BE0206C00F010006A
:100B200018B1204600F018FC03E0A06BC16C284609
:100B3000884770BD70B50546AC6B40202064606C82
:100B400040F004006064204600F006FC70BD70B503
:100B50000446A56B284600F0FEFB70BD10B50A22C6
:100B60000449054800F0CAFC0A220449044800F080
:100B7000C5FC10BDFC060020FC0100201007002071
:100B80004402002055494A6822F440324A604A68CB
:100B900043681A434A600268526822F4807203680C
:100BA0005A6002685368026943EA022203685A6085
:100BB0000268526822F0407203685A600268526804
:100BC00083681A4303685A600268926822F40062DC
:100BD00003689A6002689268C3681A4303689A605F
:100BE0003F4B826A9A4218D00268926822F0706283
:100BF00003689A6002689268836A1A4303689A607D
:100C00000268926822F0405203689A600268926813
:100C1000C36A1A4303689A600BE00268926822F084
:100C2000706203689A600268926822F0405203681A
:100C30009A600268926822F0020203689A60026871
:100C40009368027E43EA420203689A602022125CA3
:100C5000A2B10268526842F4006203685A600268F6
:100C6000526822F4604203685A6002685368426A1C
:100C7000521E43EA423203685A6005E00268526835
:100C800022F4006203685A600268D26A22F4700299
:100C90000368DA620268D36A828B521E43EA025208
:100CA0000368DA620268926822F4007203689A604C
:100CB0000268936890F8302043EA422203689A6001
:100CC0000268926822F4806203689A6002689368FE
:100CD000426943EA822203689A6070470023014018
:100CE0000100000F10B500F001F810BD10B5002292
:100CF0000221024801F044F810BD00000008024043
:100D000010B501220221024801F03AF810BD00009E
:100D10000008024010B50146002410230878A528D9
:100D200011D1581E085C5A280DD1012203E0885CBD
:100D30002044C4B2521C981E9042F8DC085CA042C9
:100D400001D1012010BD0020FCE700002DE9F04199
:100D500029480078012804D100F0D2F80020264963
:100D60000870264800782649087024484478857819
:100D7000C6780779C06823490860204880682249FE
:100D800008601F480078D0B924B11E48006805F0FB
:100D900029F909E02DB11B480068404205F022F90D
:100DA00002E0002005F01EF926B11749087805F089
:100DB00051F804E01FB11449087805F073F813489E
:100DC000007813490870134800784870124800787A
:100DD000887012480078C8700B480068486009485D
:100DE0000068886000F0CAF9094880ED030A00F045
:100DF00093F8BDE8F0810000D4000020B007002087
:100E000020010020D8000020DC000020210100206B
:100E1000C00700202201002023010020240100201F
:100E200030B50025A520194908705A208875184842
:100E30000078487016484078887015488078C870E7
:100E40001348C078087105221148001D03F08FFC7B
:100E500009220E490E48083003F089FC0D220B4987
:100E60000B480C3000F07BF911220849094800F0CA
:100E700076F9012404E00548005D2844C5B2641CED
:100E8000152CF8DB01494D7530BD0000E40700204A
:100E9000C00700207807002010B50446607808B12C
:100EA000012000E000200B490870A0784870E0782D
:100EB00088702079C870607908710621204600F09A
:100EC00043F8044988600A21204600F03DF80149B2
:100ED000C86010BDB007002010B507480068C068A2
:100EE00040F0200004490968C86010220349024804
:100EF00003F018F910BD0000A4050020D40700205D
:100F000000B50448FFF706FF10B10248FFF7C4FF21
:100F100000BD0000D407002010B5FFF781FF4FF49B
:100F20007A7317220549064803F034F900BF0448D4
:100F300002F021FE0128FAD010BD0000E4070020D5
:100F4000A405002000BFFEE710B50246505C4B1C14
:100F5000D35C4FF47F4404EA032318438B1CD35C17
:100F6000240204EA03431843CB1CD35C240204EAA2
:100F70000363184310BD000010B51F48B0F9080006
:100F800000EE100AB8EEC00AB0EE401A1A4890ED12
:100F9000030AF0EE400A194890ED000A05F024FE1D
:100FA00003461749086905F0B7FD1C18B4F57A6FB8
:100FB00001DD4FF47A6414F57A6F00DA114C1048B1
:100FC0000460204604F0EEFF0B4890ED030AF3EEB8
:100FD0000E0AB4EEE00AF1EE10FA08DC90ED030A16
:100FE000FBEE0E0AB4EEE00AF1EE10FA03D204F0C2
:100FF00051FF04F037FB10BD6C070020E00000201B
:101000002407002060F0FFFF04480068C06840F03B
:10101000200002490968C860704700002C060020C3
:1010200010B5024800F0AEFB10BD00008C0200209D
:1010300010B5024800F0A6FB10BD0000EC02002035
:101040000146087810381823B0FBF3F20848805C9A
:10105000C865032A05D908686FF30900001D886573
:1010600003E008686FF309008865886D7047000029
:10107000F2DB0008014600208A6A8B69CBB932B1E5
:10108000012A0DD0022A03D0032A10D10EE000BF9E
:10109000CB6A03F08073B3F1807F00D1012007E0B9
:1010A000CB6AB3F1C07F00D1012001E000E000BFB6
:1010B00034E08B69B3F5005F1AD132B1012A07D051
:1010C000022A03D0032A11D10AE000BF01200EE05A
:1010D000CB6A03F08073B3F1807F00D1012006E07A
:1010E000CB6AB3F1C07F00D1012000E000BF15E062
:1010F00032B1012A05D0022A04D0032A0CD103E020
:1011000000BF00BF012008E0CB6A03F08073B3F199
:10111000807F00D1012000E000BF00BF704730B5E4
:101120000468246824F4802405682C6004686360E3
:101130008468402C04D10468A2600468E16003E084
:101140000468A1600468E26030BD704710B54FF4D8
:10115000807000F00DFD10BD72B600BFFEE730B527
:1011600003461C788C545D78541C0D559D78941C56
:101170000D55DD78D41C0D5530BD00000020002138
:1011800005E00E4A32F8112010444A1CD1B20A2957
:10119000F7DB0A22B0FBF2F000EE100AF8EE400A8C
:1011A0009FED071A80EE810ADFED060A20EE200A85
:1011B000F2EE060A20EE200A704700001007002019
:1011C000000080453333534038B50246002000907C
:1011D00000BF92F83C00012801D1022038BD012057
:1011E00082F83C0000BF0868092816D91068C0685A
:1011F0000C780A3C04EB44050724AC40A043146877
:10120000E0600C780A3C04EB44048868A040146851
:10121000E46820431468E06013E0106800690C780B
:1012200004EB44050724AC40A043146820610C780B
:1012300004EB44048868A0401468246920431468BF
:1012400020614868072817D21068406B0C79641E2B
:1012500004EB84051F24AC40A04314686063088835
:1012600080B20C79641E04EB8404A0401468646BA3
:1012700020431468606331E048680D2817D2106875
:10128000006B0C79E41F04EB84051F24AC40A043E1
:1012900014682063088880B20C79E41F04EB84048E
:1012A000A0401468246B20431468206316E0106883
:1012B000C06A0C790D3C04EB84051F24AC40A043AC
:1012C0001468E062088880B20C790D3C04EB840459
:1012D000A0401468E46A20431468E062194B1A4C79
:1012E0001068A04206D10868122803D1586840F45B
:1012F00080005860144C1068A0421CD10868102867
:1013000002D00868112816D1586840F400005860CF
:10131000086810280FD10D4800680D4CB0FBF4F0A0
:1013200000EB80004000009002E00098401E00901A
:1013300000980028F9D100BF002082F83C0000BFCF
:1013400000BF4BE70023014000200140680100205E
:1013500040420F00704770477047000070B5044668
:1013600000250CB9012070BD1549A06A884200D043
:1013700000BF206C30B9204600F024F800206064E3
:1013800084F83C00206C00F0100088B9206C20F438
:10139000885040F0020020642046FFF7F3FB002055
:1013A0006064206C20F0020040F00100206400E046
:1013B000012500BF002084F83C0000BF2846D2E78A
:1013C0000100000F10B586B00446142101A8FEF7F5
:1013D000F2FF4349206888422ED100BF00200090D0
:1013E0004048006840F480703E4908600846006844
:1013F00000F48070009000BF00BF3B483B4908608C
:1014000000204860002139488160C1604FF480614C
:10141000016149004161890081614911C161002177
:101420000162416200F0CEFA08B1FFF795FE00BFFD
:101430002E48A063846350E02D49206888424CD137
:1014400000BF002000902748006840F40070254944
:1014500008600846006800F40070009000BF00BFFC
:1014600000BF002000901F481438006840F00400BE
:101470001C49143908600846006800F00400009018
:1014800000BF00BF202001900320029000200390A5
:1014900001A9184800F07AFB13483030164908605B
:1014A0004FF000704860002113488160C1604FF424
:1014B0008061016149004161890081614911C16117
:1014C00000210162416200F07DFA08B1FFF744FE9D
:1014D00000BF0948A063846300BF06B010BD0000D0
:1014E0000020014044380240106402408C02002079
:1014F0000021014000080240EC020020F8B504463B
:101500000D4616460020009000BF94F83C000128CC
:1015100001D10220F8BD012084F83C0000BF206802
:10152000806800F00100A0B92068806840F00100E8
:1015300021688860554800685549B0FBF1F000EB20
:101540004000009002E00098401E009000980028A3
:10155000F9D12068806800F48070B0F5807F05D1F3
:101560002068806820F48070216888602068806826
:1015700000F0010000287ED0206C40F20161884319
:1015800040F4807020642068406800F4806028B1D6
:10159000206C20F4005040F480502064206C00F453
:1015A0008050B0F5805F04D1606C20F0060060646C
:1015B00001E00020606400BF002084F83C0000BF10
:1015C000344F3548A16BC8633448A16B0864344874
:1015D000A16BC8646FF02200216808602068406831
:1015E00040F08060216848602068806840F4807026
:1015F00021688860226802F14C0133462A46A06BBC
:1016000000F056FA786800F01F0018BB25492068E2
:10161000884213D024492068884204D1381D0068CC
:1016200000F01F0050B12149206888422BD1194891
:10163000001D006800F01F00102824D22068806878
:1016400000F04050F8B92068806840F08040216880
:10165000886018E013492068884214D120688068A7
:1016600000F0405078B92068806840F080402168E0
:10167000886008E0FFE7206C40F010002064606C98
:1016800040F001006064002044E700006801002091
:1016900040420F0000230140B70A00084F0B00082A
:1016A000350B0008002001400021014000220140CC
:1016B00070B50446A56D00F069FB064694F8350048
:1016C000022808D08020606500BF002084F8340024
:1016D00000BF012070BD2068006820F0160021685E
:1016E00008602068406920F0800021684861206C13
:1016F00008B9A06C28B12068006820F008002168B3
:1017000008602068006820F001002168086010E08F
:1017100000F03CFB801B05280BD9202060650320CE
:1017200084F8350000BF002084F8340000BF032097
:10173000D0E72068006800F001000028E8D194F8A4
:101740005C103F208840A860012084F8350000BF6D
:10175000002084F8340000BF00BFBBE7014691F8C9
:101760003500022803D080204865012070470520FD
:1017700081F835000868006820F001000A681060F0
:101780000020F3E7F8B50446002000908C4800687C
:101790004FF41651B0FBF1F7A56D2E6894F85C106C
:1017A00008208840304098B12068006800F00400AC
:1017B00070B12068006820F004002168086094F887
:1017C0005C1008208840A860606D40F001006065F2
:1017D00094F85C1001208840304068B1206840696E
:1017E00000F0800040B194F85C1001208840A860AF
:1017F000606D40F00200606594F85C100420884041
:10180000304068B12068006800F0020040B194F8F0
:101810005C1004208840A860606D40F004006065A2
:1018200094F85C1010208840304078B3206800683D
:1018300000F0080050B394F85C1010208840A860B5
:101840002068006800F4802080B12068006800F4FF
:10185000002028B9206CC8B12046216C884715E0CB
:10186000A06C98B12046A16C88470FE02068006802
:1018700000F4807028B92068006820F00800216812
:101880000860206C10B12046216C884794F85C10E9
:10189000202088403040002865D02068006800F093
:1018A000100000285FD094F85C1020208840A860C9
:1018B00094F83500052828D12068006820F016002B
:1018C000216808602068406920F080002168486134
:1018D000206C08B9A06C28B12068006820F00800CE
:1018E0002168086094F85C103F208840A8600120BF
:1018F00084F8350000BF002084F8340000BF206D5C
:1019000010B12046216D8847F8BD2068006800F4BA
:10191000802080B12068006800F4002028B9606C45
:1019200010B12046616C88471DE0E06BD8B12046BD
:10193000E16B884717E02068006800F4807068B9A0
:101940002068006820F0100021680860012084F8F9
:10195000350000BF002084F8340000BFE06B10B1F8
:101960002046E16B8847606D38B3606D00F0010080
:10197000F0B1052084F835002068006820F00100EF
:101980002168086000BF0098401C0090B84200D950
:1019900005E02068006800F001000028F3D100BFD6
:1019A000012084F8350000BF002084F8340000BF17
:1019B000E06C10B12046E16C884700BFA4E700004E
:1019C000680100202DE9F0410446002500F0DEF911
:1019D000074614B90120BDE8F081606A00B100BF7C
:1019E000022084F8350000BF002084F8340000BFD6
:1019F0002068006820F00100216808600AE000F01B
:101A0000C5F9C01B052805D920206065032084F88E
:101A10003500E0E72068006800F001000028EED102
:101A20002068056821480540D4E901010843E168C0
:101A300008432169084361690843A1690843E169D2
:101A40000843216A08430543606A042803D1D4E9A6
:101A50000B0108430543206805602068456925F0AF
:101A60000705606A0543606A04280DD1A06A054332
:101A7000E06A48B12046FFF7FDFA28B140206065D2
:101A8000012084F83500A6E7206845612046FFF76D
:101A9000D7FA064694F85C103F208840B0600020DA
:101AA0006065012084F83500002094E73F8010F045
:101AB0002DE9F04704460D4616461F464FF0000834
:101AC000D4F8589000BF94F83400012802D10220C5
:101AD000BDE8F087012084F8340000BF94F8350099
:101AE000012825D1022084F83500002060653B469E
:101AF000324629462046FFF712FB94F85C103F203F
:101B00008840C9F808002068006840F01600216885
:101B10000860206C28B12068006840F00800216847
:101B200008602068006840F001002168086006E055
:101B300000BF002084F8340000BF4FF00208404688
:101B4000C6E7000070B5044600F020F906462546B9
:101B5000681C10B104480078054400BF00F016F975
:101B6000801BA842FAD370BD6401002070470000BA
:101B700010B5044604480068204020B102480460C3
:101B80002046FFF7F3FF10BD143C0140F8B50246B4
:101B90000B460025002400200021D6E0012606FA8D
:101BA00001F51E6806EA0504AC4274D11E7906F000
:101BB0000306012E04D01E7906F00306022E13D16F
:101BC00090684F000326BE40B0434F00DE68BE4021
:101BD00030439060506801268E40B0431E79C6F3B2
:101BE00000168E40304350601E7906F00306032E27
:101BF00009D0D0684F000326BE40B0434F009E6816
:101C0000BE403043D0601E7906F00306022E13D189
:101C1000CF0802F1200656F827004E07F70E0F26D0
:101C2000BE40B0434F07FF0E1E69BE403043CF0891
:101C300002F1200646F8270010684F000326BE4038
:101C4000B0431E7906F003064F00BE4030431060DB
:101C50005E6806F44036002E76D000BF002600965F
:101C60003C4E366846F480463A4F3E603E46366803
:101C700006F48046009600BF00BF374E8F0856F826
:101C800027008E07370F0F26BE40B043334EB242B7
:101C900002D1002624E057E0314EB24201D10126A4
:101CA0001EE0304EB24201D1022619E02E4EB24261
:101CB00001D1032614E02D4EB24201D104260FE0DB
:101CC0002B4EB24201D105260AE02A4EB24201D182
:101CD000062605E0284EB24201D1072600E008267C
:101CE0008F073F0FBE4030431B4E8F0846F827003A
:101CF000224E3068A0435E6806F4801606B1204389
:101D00001E4E3060361D3068A0435E6806F4001633
:101D100006B12043194E361D3060184E361F30680C
:101D2000A0435E6806F4003606B12043134E361F0A
:101D30003060361F3068A0435E6806F4803606B116
:101D400020430E4E083E3060491C1029FFF426AF98
:101D5000F8BD00004438024008380140000002404D
:101D60000004024000080240000C02400010024043
:101D70000014024000180240001C0240083C0140D0
:101D80000AB1816101E00B0483617047014800687A
:101D9000704700005C010020014691F83D0070474B
:101DA00070B504460CB9012070BD94F83D0028B907
:101DB000002084F83C00204600F0E2FB242084F858
:101DC0003D002068006820F001002168086020685C
:101DD000006840F40040216808602068006820F432
:101DE00000402168086000F061FE05465C496068BB
:101DF000884206D85B48854201D2012007E00020D6
:101E000005E05948854201D2012000E00020012868
:101E100000D1C9E75548B5FBF0F62068406820F0CE
:101E20003F003043216848604D496068884201D8CE
:101E3000701C07E04FF4967070434FF47A71B0FB5A
:101E4000F1F0401C2168096A21F03F010843216834
:101E5000086243496068884214D8681E6168490076
:101E6000B0FBF1F0401CC0F30B00042801D20420A9
:101E70003DE0681E61684900B0FBF1F0401CC0F312
:101E80000B0034E0A06838B9681E616801EB4101BD
:101E9000B0FBF1F0401C0AE0681E616801EBC10272
:101EA00002EB0111B0FBF1F0401C40F48040C0F3A4
:101EB0000B0008B901201AE0A06848B9681E6168E3
:101EC00001EB4101B0FBF1F0401CC0F30B000CE052
:101ED000681E616801EBC10202EB0111B0FBF1F079
:101EE000401CC0F30B0040F4804040F400402168E7
:101EF000C9694CF6FF72914308432168C861D4E96F
:101F0000070108432168096821F0C00108432168DE
:101F10000860D4E9031008432168896848F2FF3259
:101F20009143084321688860D4E90501084321688A
:101F3000C96821F0FF0108432168C8602068006873
:101F400040F001002168086000202064202084F80F
:101F50003D000020206384F83E0000BF24E700001D
:101F6000A086010080841E0000093D0040420F0051
:101F70002DE9F84F04460F4690461E46FFF706FF30
:101F800005464FF0000994F83D0020287ED1192322
:101F9000012263492046009502F0D6FA10B10220D2
:101FA000BDE8F88F00BF94F83C00012801D1022061
:101FB000F6E7012084F83C0000BF2068006800F0CC
:101FC000010028B92068006840F00100216808601D
:101FD0002068006820F4006021680860242084F8EC
:101FE0003D00002020644F48E06200BF2068006888
:101FF00040F4807021680860334600224FF00111E0
:102000002046009502F0A0FA58B12068006800F45C
:102010008070B0F5807F02D14FF4007020640320FF
:10202000BEE707F0FE0021680861FFF7AFFE054636
:1020300020684069C0F3400A20684069C0F3802BE3
:1020400010E0FFF7A3FE401BB04200D816B9A02055
:1020500084F83D0020684069C0F3400A2068406968
:10206000C0F3802B94F83D00A02805D0BAF1000FF2
:1020700002D1BBF1000FE4D0202084F83D0020689D
:102080004069C0F3400028B3206800E045E00068E4
:1020900040F400702168086000BF002000902068B4
:1020A0004069009020688069009000BF00BF19233C
:1020B00001221B492046009502F046FA08B1012092
:1020C0006EE7202084F83D0000BF002084F83C002B
:1020D00000BF65E72068006840F400702168086070
:1020E0006FF4806021684861192301220C49204661
:1020F000009502F029FA08B1012051E709F1010920
:10210000C145FFF473AF202084F83D0000BF0020DC
:1021100084F83C0000BF012042E7022040E70000B5
:10212000020010000000FFFF2DE9FC5F04460F468F
:1021300090469946DDE90CAB0E9EFFF727FE05465B
:1021400094F83D00202870D119230122B04920467F
:10215000009502F0F9F910B10220BDE8FC9F00BF24
:1021600094F83C00012801D10220F6E7012084F810
:102170003C0000BF2068006800F0010028B920681A
:10218000006840F00100216808602068006820F4C1
:10219000006021680860222084F83D00402084F817
:1021A0003E0000202064C4F824A0A4F82AB0608D6A
:1021B00020859848E0624B46424639462046CDE9A4
:1021C000006502F073F808B10120C6E7208D88B9D8
:1021D00000BF00200190206840690190206880695C
:1021E000019000BF00BF2068006840F400702168C3
:1021F000086040E0208D012818D12068006820F494
:1022000080602168086000BF00200190206840695C
:10221000019020688069019000BF00BF20680068BD
:1022200040F400702168086025E0EFE0208D02286E
:1022300016D12068006820F480602168086020685A
:10224000006840F400602168086000BF0020019031
:1022500020684069019020688069019000BF0AE011
:1022600000BF0020019020684069019020688069CB
:10227000019000BF00BFBAE0208D03287ED8208DDA
:10228000012815D12A463146204602F002FA08B14B
:10229000012062E720680069616A0870606A401C7A
:1022A0006062208D401E2085608D401E60859EE00E
:1022B000208D02282AD13346002257492046009516
:1022C00002F042F908B1012047E72068006840F4B5
:1022D00000702168086020680069616A0870606A9F
:1022E000401C6062208D401E2085608D401E6085F0
:1022F00020680069616A0870606A401C6062208D15
:10230000401E2085608D401E608570E033460022AF
:1023100041492046009502F017F908B101201CE759
:102320002068006820F480602168086020680069E7
:10233000616A0870606A401C6062208D401E2085C2
:10234000608D401E6085334600223349204600954B
:1023500002F0FAF808B10120FFE62068006840F4B6
:1023600000702168086020680069616A0870606A0E
:10237000401C6062208D401E208500E010E0608DD2
:10238000401E608520680069616A0870606A401CB0
:102390006062208D401E2085608D401E608526E095
:1023A0002A463146204602F074F908B10120D4E6ED
:1023B00020680069616A0870606A401C6062208D54
:1023C000401E2085608D401E608520684069C0F3F6
:1023D000800060B120680069616A0870606A401C12
:1023E0006062208D401E2085608D401E6085208D9E
:1023F00000287FF441AF202084F83D00002084F8BD
:102400003E0000BF84F83C0000BFA6E60220A4E620
:10241000020010000000FFFF040001002DE9FC5F36
:1024200004460F4690469946DDE90CAB0E9EFFF739
:10243000ADFC054694F83D0020287DD119230122EA
:102440004D492046009502F07FF810B10220BDE80A
:10245000FC9F00BF94F83C00012801D10220F6E760
:10246000012084F83C0000BF2068006800F00100F3
:1024700028B92068006840F00100216808602068E1
:10248000006820F4006021680860212084F83D0085
:10249000402084F83E0000202064C4F824A0A4F862
:1024A0002AB0608D20853548E0624B464246394669
:1024B0002046CDE9006501F0A9FF08B10120C6E77B
:1024C00031E02A463146204602F023F950B1206C13
:1024D000042805D12068006840F400702168086075
:1024E0000120B4E7606A007821680861606A401CD6
:1024F0006062208D401E2085608D401E60852068B2
:102500004069C0F3800070B1208D60B1606A0078CE
:1025100021680861606A401C6062208D401E208531
:10252000608D401E6085208D0028CAD12A46314624
:10253000204601F0DBFF00E01CE050B1206C0428D5
:1025400005D12068006840F400702168086001200F
:102550007DE72068006840F4007021680860202052
:1025600084F83D00002084F83E0000BF84F83C0061
:1025700000BF6CE702206AE7020010000000FFFFC6
:1025800010B586B00446142101A8FDF714FF444994
:102590002068884230D100BF002000904148006888
:1025A00040F002003F4908600846006800F0020061
:1025B000009000BF00BF4FF44070019012200290C5
:1025C00000200390032004900420059001A93648C0
:1025D000FFF7DCFA00BF002000903248103000689E
:1025E00040F400102F49103108600846006800F4DC
:1025F0000010009000BF51E02C49206888424DD166
:1026000000BF002000902748006840F004002549E2
:1026100008600846006800F00400009000BF00BF9A
:1026200000BF002000900846006840F001000860EC
:102630000846006800F00100009000BF00BF481588
:1026400001901220029000200390032004900420A7
:10265000059001A91648FFF799FA4FF48070019090
:102660001220029000200390032004900420059083
:1026700001A91048FFF78AFA00BF0020009009481E
:102680001030006840F40000064910310860084628
:10269000006800F40000009000BF00BF06B010BD4D
:1026A000005400403038024000040240005C00400A
:1026B000000802400000024003480068034909780E
:1026C00008440149086070475C0100206401002053
:1026D00010B50D48006840F400700B4908600846CA
:1026E000006840F4806008600846006840F480702C
:1026F0000860032000F0DCF80F2000F007F800F07D
:102700005FF8002010BD0000003C02402DE9F041C0
:1027100088B004460027B84600BF00200190234837
:10272000006840F48070214908600846006800F4A1
:102730008070019000BF00BF02A903A800F08EF9CD
:10274000069F1FB900F0B2F9054602E000F0AEF9AD
:1027500045001748B5FBF0F0A0F1010815481649EF
:10276000086040F2E7311448C160C0F804800021DD
:1027700001618160816100F0BBFC064696B90E489C
:1027800000F00EFD06466EB92D2000F043F8102C27
:1027900007D2002221462D2000F04CF807480460A3
:1027A00000E00126304608B0BDE8F0814038024024
:1027B00040420F0000200040B406002060010020CD
:1027C00008B500BF002000901148006840F4804028
:1027D0000F4908600846006800F48040009000BF80
:1027E00000BF00BF00200090081F006840F080502C
:1027F000091F08600846006800F08050009000BF84
:1028000000BF00220F21901E00F014F808BD000048
:102810004438024001460846002809DB00F01F0347
:1028200001229A4043099B0003F1E023C3F80021F1
:1028300000BF70472DE9F05F80460D461646002721
:1028400004F078FA074639462A46334601F0070075
:10285000C0F1070ABAF1040F02D94FF0040A01E0EF
:10286000C0F1070AD14600F1040ABAF1070F02D2FB
:102870004FF0000A01E0A0F1030AD4464FF0010A2C
:102880000AFA09FAAAF1010A0AEA020A0AFA0CFA91
:102890004FF0010B0BFA0CFBABF1010B0BEA030B36
:1028A0004AEA0B042146404604F04CFABDE8F09F8A
:1028B00000BF00F00702064B19684FF6FF031940EE
:1028C000044B0B4343EA0221014B196000BF7047E0
:1028D0000CED00E00000FA0570B504460D460CB999
:1028E000012070BD5848006800F00700A84209D2D6
:1028F00055490D700846006800F00700A84201D055
:102900000120EEE7207800F0020002281DD1207897
:1029100000F00400042805D14C48006840F4E05061
:102920004A490860207800F00800082805D1474887
:10293000006840F46040454908604448006820F061
:10294000F000A168084341490860207800F00100C8
:10295000A8B36068012807D13C4808380068C0F374
:102960004040B8B90120BCE76068022802D0606826
:10297000032807D1354808380068C0F3406048B9DB
:102980000120AEE7314808380068C0F3400008B9BC
:102990000120A6E72D48006820F003006168084385
:1029A0002A490860FFF7F2F9064609E0FFF7EEF959
:1029B000801B41F28831884202D9032091E707E069
:1029C0002248006800F00C006168B0EB810FEDD187
:1029D0001D48006800F00700A84209D91A490D7087
:1029E0000846006800F00700A84201D0012078E7FF
:1029F000207800F00400042807D11448006820F46F
:102A0000E050E168084311490860207800F00800B0
:102A1000082808D10D48006820F46040216940EA88
:102A2000C1000A49086000F061F808490968C1F36B
:102A30000311074A515CC84006490860064800680F
:102A4000FFF764FE00204CE7003C024008380240DB
:102A5000FADB000868010020600100200F220260FC
:102A60000D4A126802F0030242600B4A126802F03B
:102A7000F0028260084A126802F4E052C260064A1C
:102A8000126802F46042D2080261044A126802F03D
:102A900007020A607047000008380240003C02400C
:102AA00001480068704700006801002000B5FFF78A
:102AB000F7FF04490968C1F38221034A515CC84009
:102AC00000BD0000083802400ADC000800B5FFF72E
:102AD000E7FF04490968C1F34231034A515CC84029
:102AE00000BD0000083802400ADC00082DE9F0476C
:102AF000002400250026A1462548006800F00C00AF
:102B000020B1042805D008283AD105E0DFF88490E8
:102B100039E0DFF8849036E01D48001F006800F0BF
:102B20003F041B48001F006800F4800078B11A4879
:102B30001749091F0968C1F38811A0FB01700146FC
:102B4000224600233846FDF79BFB05460EE0114860
:102B50000F49091F0968C1F38811A0FB01700146E4
:102B6000224600233846FDF78BFB05460848001F28
:102B70000068C0F30140401C4600B5FBF6F902E0D6
:102B8000DFF8109000BF00BF4846BDE8F0870000A6
:102B9000083802400024F40040787D01F8B504466E
:102BA0000CB90120F8BD207800F00100002874D095
:102BB000F948006800F00C0004280DD0F6480068C1
:102BC00000F00C00082813D1F348001F006800F43F
:102BD0008000B0F5800F0BD1EF4808380068C0F3D3
:102BE0004040002859D06068002856D10120D9E71C
:102BF00000BF6068B0F5803F08D1E748083800683A
:102C000040F48030E449083908601EE06068B0F59F
:102C1000A02F0DD1E0480838006840F48020DE493C
:102C2000083908600846006840F4803008600CE00D
:102C3000D9480838006820F48030D749083908603E
:102C40000846006820F48020086000BF606890B1EA
:102C5000FFF79CF8054606E0FFF798F8401B64284C
:102C600001D903209EE7CC4808380068C0F34040F3
:102C70000028F1D011E0FFF789F8054606E0FFF7DC
:102C800085F8401B642801D903208BE7C248083827
:102C90000068C0F340400028F1D1207800F0020025
:102CA00002285FD1BC48006800F00C0058B1BA4857
:102CB000006800F00C0008281CD1B748001F00680D
:102CC00000F48000B0B9B44808380068C0F3400090
:102CD00020B1E068012801D0012063E7AE48083840
:102CE000006820F0F800216940EAC100AA490839CB
:102CF000086037E0E06800B30120A8490860FFF7EA
:102D000045F8054606E0FFF741F8401B022801D9C7
:102D1000032047E7A04808380068C0F340000028B7
:102D2000F1D09D480838006820F0F800216940EA99
:102D3000C10099490839086014E0002097490860EB
:102D4000FFF724F8054606E0FFF720F8401B0228AD
:102D500001D9032026E7904808380068C0F34000F6
:102D60000028F1D1207800F0080008282CD16069F3
:102D7000A8B101208A490860FFF708F8054606E077
:102D8000FFF704F8401B022801D903200AE7824814
:102D90006C300068C0F340000028F1D014E000203F
:102DA0007F490860FEF7F2FF054606E0FEF7EEFFFA
:102DB000401B022801D90320F4E677486C300068F4
:102DC000C0F340000028F1D1207800F0040004286E
:102DD00070D1002770483830006800F0805090B9FA
:102DE00000BF002000906C483830006840F08050F0
:102DF0006949383108600846006800F0805000904A
:102E000000BF00BF01276748006800F48070B0B9B8
:102E10006448006840F4807062490860FEF7B6FFBD
:102E2000054606E0FEF7B2FF401B022801D9032049
:102E3000B8E65C48006800F480700028F2D000BF5B
:102E4000A068012808D154486830006840F00100AB
:102E50005149683108601DE0A06805280DD14E4831
:102E60006830006840F004004B496831086008464B
:102E7000006840F0010008600CE0474868300068D6
:102E800020F001004449683108600846006820F0DD
:102E90000400086000BFA068A8B1FEF777FF0546F0
:102EA00009E0FEF773FF401B41F28831884202D9E6
:102EB000032077E626E0384868300068C0F3400019
:102EC0000028EED013E0FEF761FF054608E0FEF7AC
:102ED0005DFF401B41F28831884201D9032061E641
:102EE0002D4868300068C0F340000028EFD1012F62
:102EF00007D129483830006820F080502649383101
:102F0000086000BFA069002845D02348006800F091
:102F10000C0008285DD0A069022845D100201F4977
:102F20000866FEF733FF054606E0FEF72FFF401B5D
:102F3000022801D9032035E6174808380068C0F395
:102F400040600028F1D1D4E907010843616A40EAF2
:102F500081110122A06AC2EB500041EA00412C20FD
:102F6000005D41EA00600C49091F086001200B491F
:102F70000866FEF70BFF054606E0FEF707FF401B5D
:102F8000022801D903200DE6034808380068C0F381
:102F900040600028F1D049E0083802400000474274
:102FA000800E474200700040002021490866FEF76D
:102FB000EDFE054606E0FEF7E9FE401B022801D9BA
:102FC0000320EFE51B480068C0F340600028F2D101
:102FD0002CE0A069012800D1E4E51648001D066830
:102FE000A069012820D006F48001E06981421BD14C
:102FF00006F03F01206A814216D147F6C07030408A
:10300000616AB0EB811F0FD106F440310122A06A42
:10301000C2EB5000B1EB004F06D106F070612C20DE
:10302000005DB1EB006F01D00120BBE50020B9E5E8
:1030300000004742003802407047704730B50246F2
:103040000B4600BF92F83C00012801D1022030BDA0
:10305000012082F83C0000BF022082F83D00106889
:1030600044681068816824F070041868044310688C
:103070004460184D1068A8421BD01068B0F1804F12
:1030800017D0154D1068A84213D0144D1068A842EF
:103090000FD0134D1068A8420BD0124D1068A842F3
:1030A00007D0114D1068A84203D0104D1068A842F7
:1030B00005D121F08001586801431068816001202A
:1030C00082F83D0000BF002082F83C0000BF00BF36
:1030D000BDE700000000014000040040000800407F
:1030E000000C004000040140004001400018004076
:1030F00010B504460CB9012010BD94F83D0028B964
:10310000002084F83C00204600F026F8022084F8D5
:103110003D00211D206803F0F7F8012084F84600E7
:1031200000BF84F83E0001213F2001554020015599
:103130004120015500BF00BF012084F84200432018
:103140000155442001554520015500BF012084F858
:103150003D000020D0E7000038B504460E49206845
:10316000884217D100BF002000900C48006840F052
:1031700010000A4908600846006800F0100000903E
:1031800000BF00BF002205213620FFF753FB362089
:10319000FFF740FB38BD00000010004040380240FF
:1031A000014691F83D00012801D00120704702201E
:1031B00081F83D000868C06840F001000B68D860E5
:1031C0001A4B086898421BD00868B0F1804F17D09E
:1031D000174B0868984213D0164B086898420FD0D6
:1031E000154B086898420BD0144B0868984207D0DA
:1031F000134B0868984203D0124B086898420CD1D0
:103200000868806800F00702062A0CD00868006889
:1032100040F001000B68186005E00868006840F0A5
:1032200001000B6818600020C0E7000000000140AA
:103230000004004000080040000C00400004014071
:1032400000400140001800402DE9F04104460D46C1
:1032500014B90120BDE8F08194F83D0028B90020A0
:1032600084F83C00204600F053F8022084F83D002A
:103270002068806844F20701884321688860211D26
:10328000206803F041F82068D0F80880206886693B
:103290002068076A286840EA080840F2033086433D
:1032A000A969A86840EA0120064340F60C4086431D
:1032B0004FF2F0008643E969E86840EA01200643DE
:1032C00028690001296A40EA0130064327F02207F5
:1032D00027F088076969686840EA01100743206899
:1032E000C0F808802068866120680762012084F8A1
:1032F000460084F83E0001213F200155012084F85A
:10330000420043200155012084F83D000020A1E740
:1033100010B586B00446142101A8FDF74CF83C49CD
:103320002068884237D100BF0020009039480068EB
:1033300040F00400374908600846006800F00400C7
:10334000009000BF00BF00BF00200090314810383F
:10335000006840F002002F491039086008460068F4
:1033600000F00200009000BF00BFC02001900220CA
:1033700002900020039004900220059001A92648A5
:10338000FEF704FC002205211E20FFF753FA1E2041
:10339000FFF740FA3AE021492068884236D100BF61
:1033A000002000901B48006840F0080019490860A0
:1033B0000846006800F00800009000BF00BF00BF92
:1033C0000020009013481038006840F001001149B7
:1033D000103908600846006800F00100009000BF46
:1033E00000BF03200190022002900020039004906F
:1033F0000220059001A90A48FEF7C8FB002205211A
:103400003220FFF717FA3220FFF704FA06B010BD9A
:10341000000800404038024000040240000C004018
:10342000000002402DE9F04304460D4694F83E604A
:103430003F20075D94F84280432010F804906DB956
:10344000012E02D1B8F1010F02D00120BDE8F083B6
:10345000022084F83E0084F8420025E0042D0CD1BF
:10346000012F02D1B9F1010F01D00120EEE70221B5
:103470003F2001554320015516E0012E07D1012FB1
:1034800005D1B8F1010F02D1B9F1010F01D001202E
:10349000DCE7022084F83E0002213F200155022093
:1034A00084F842004320015515B1042D18D10BE0DA
:1034B00001220021206802F093FF2068C06840F0DC
:1034C00002002168C86022E001220421206802F085
:1034D00087FF2068C06840F004002168C86016E0DB
:1034E00001220021206802F07BFF012204212068D4
:1034F00002F076FF2068C06840F002002168C860D2
:103500002068C06840F004002168C86000BF00BFA8
:103510002068006840F0010021680860002095E7FD
:10352000704710B5044620680069C0F34000D8B168
:103530002068C068C0F34000B0B16FF0020021689D
:103540000861012020772068806900F0030018B12D
:103550002046FFF7E5FF05E0204600F023F920466E
:1035600000F01CFA0020207720680069C0F380007A
:10357000D8B12068C068C0F38000B0B16FF004001B
:1035800021680861022020772068806900F440707B
:1035900018B12046FFF7C4FF05E0204600F002F90D
:1035A000204600F0FBF90020207720680069C0F376
:1035B000C000D8B12068C068C0F3C000B0B16FF0DF
:1035C000080021680861042020772068C06900F0A5
:1035D000030018B12046FFF7A3FF05E0204600F0E6
:1035E000E1F8204600F0DAF9002020772068006931
:1035F000C0F30010D8B12068C068C0F30010B0B1AB
:103600006FF0100021680861082020772068C069E9
:1036100000F4407018B12046FFF782FF05E0204615
:1036200000F0C0F8204600F0B9F9002020772068AB
:10363000006900F0010058B12068C06800F0010086
:1036400030B16FF0010021680861204600F02EFAC9
:1036500020680069C0F3C01058B12068C068C0F38A
:10366000C01030B16FF08000216808612046FFF77C
:10367000E3FC20680069C0F3801058B12068C0687E
:10368000C0F3801030B16FF040002168086120461F
:1036900000F06EFA20680069C0F3401058B120684D
:1036A000C068C0F3401030B16FF02000216808619D
:1036B0002046FFF7C2FC10BD10B586B004461421A9
:1036C00001A8FCF778FE2068B0F1804F1DD100BF43
:1036D000002000902F48006840F001002D4908604C
:1036E0000846006800F00100009000BF00BF2020E5
:1036F0000190022002900020039004900120059088
:1037000001A92548FEF742FA42E024492068884290
:103710001DD100BF002000901E48006840F001004D
:103720001C4908600846006800F00100009000BFD6
:1037300000BF4020019002200290002003900490DE
:103740000220059001A91448FEF720FA20E0144950
:10375000206888421CD100BF002000900D480068FE
:1037600040F001000B4908600846006800F00100C5
:10377000009000BF00BF0C200190022002900020AA
:10378000039004900320059001A90348FEF7FEF979
:1037900006B010BD30380240000002400004004076
:1037A0000040014070472DE9F04104460D461646A1
:1037B000002700BF94F83C00012802D10220BDE898
:1037C000F081012084F83C0000BF36B1042E1BD0EC
:1037D000082E31D00C2E5ED145E02946206802F03B
:1037E00011FE2068806940F0080021688861206827
:1037F000806920F004002168886120688069296957
:1038000008432168886148E02946206802F032FEBA
:103810002068806940F400602168886120688069C0
:1038200020F480602168886120688069296940EA05
:1038300001202168886130E02946206802F058FEA6
:103840002068C06940F008002168C8612068C0692C
:1038500020F004002168C8612068C0692969084314
:103860002168C86119E02946206802F07DFE2068C1
:10387000C06940F400602168C8612068C06920F414
:1038800080602168C8612068C069296940EA012018
:103890002168C86101E0012700BF00BF00BF002010
:1038A00084F83C0000BF384689E710B504460CB9DF
:1038B000012010BD94F83D0028B9002084F83C0098
:1038C000204600F025F8022084F83D00211D2068E4
:1038D00002F01AFD012084F8460000BF84F83E0083
:1038E00001213F200155402001554120015500BFD5
:1038F00000BF012084F842004320015544200155B7
:103900004520015500BF012084F83D000020D0E78C
:1039100008B50168B1F1804F0FD100BF00210091BF
:103920001B49096841F00101194A116011460968F3
:1039300001F00101009100BF29E0164A016891429F
:103940000FD100BF002100911149096841F0020127
:103950000F4A11601146096801F00201009100BF91
:1039600015E00D4A0168914211D100BF002100917C
:103970000749091D096841F48031054A121D11608B
:103980001146096801F48031009100BF00BF08BDF5
:1039900040380240000400400040014070470000F1
:1039A00070B504460D4615B994F83E000BE0042DA1
:1039B00002D13F20005D06E0082D02D14020005DCD
:1039C00001E04120005D012801D0012070BD1DB93A
:1039D000022084F83E000EE0042D03D102213F2096
:1039E000015508E0082D03D102214020015502E0D5
:1039F00002214120015501222946206802F0F0FCF5
:103A000023492068884203D022492068884201D196
:103A1000012000E0002028B12068406C40F4004004
:103A2000216848641A49206888421BD02068B0F198
:103A3000804F17D018492068884213D01749206852
:103A400088420FD01649206888420BD0114920685F
:103A5000884207D013492068884203D01249206861
:103A600088420CD12068806800F00706062E0CD032
:103A70002068006840F001002168086005E02068C7
:103A8000006840F001002168086000209EE7000007
:103A90000000014000040140000400400008004014
:103AA000000C0040004001400018004010B50446E2
:103AB00029492068884201D1FEF7FEFD274884424B
:103AC00012D10068006800F01000102806D12448C8
:103AD0008089401E00B22249888105E02048808903
:103AE000401C00B21E4988811E48844213D10068E0
:103AF000006800F01000102806D11B488089401E85
:103B000000B21949888126E017488089401C00B21C
:103B1000154988811FE0154884421CD1114800686E
:103B2000406A1149B1F90C10C1EB014108440E493A
:103B30004968401A0C4988600A480068406AB1F92F
:103B40000C10C1EB014108440749486000208881FE
:103B500008468068086110BD0020004084040020F1
:103B600024070020CC040020480700201405002072
:103B700070477047704701460022002391F83D20AE
:103B800091F83E3042EA0300704700002DE9F84FFB
:103B90000446206805682068C668206847694FF0B9
:103BA0000009CA4605F00F09B9F1000F0AD105F066
:103BB000200038B106F0200020B1204602F05CFD64
:103BC000BDE8F88FB9F1000F7CD007F0010018B9FB
:103BD00006F49070002875D005F0010030B106F4AD
:103BE000807018B1206C40F00100206405F00400E2
:103BF00030B107F0010018B1206C40F002002064E1
:103C000005F0020030B107F0010018B1206C40F05F
:103C10000400206405F0080048B106F0200010B947
:103C200007F0010018B1206C40F008002064206CFF
:103C3000002846D005F0200028B106F0200010B181
:103C4000204602F019FD20684069C0F3801A206CFC
:103C500000F0080010B9BAF1000F2DD0204602F094
:103C6000C5FC2068406900F04000402820D100BF1A
:103C700000BF2168143151E8001F21F04000216885
:103C8000143141E80002002AF3D100BFA06B50B10B
:103C90007548A16B0865A06BFDF760FD88B1A06B4E
:103CA000016D88470DE02046FFF764FF09E009E059
:103CB0002046FFF75FFF04E02046FFF75BFF002090
:103CC00020647DE7206B012876D105F010000028E4
:103CD00072D006F010000028FAD000BF002000903B
:103CE00020680068009020684068009000BF00BF16
:103CF0002068406900F0400040285ED1A06B006859
:103D000040681FFA80F8B8F1000F54D0A08D4045EC
:103D100051DDA4F82E80A06BC069B0F5807F43D040
:103D200000BF00BF21680C3151E8001F21F48070F2
:103D300021680C3141E80002002AF3D100BF00BF26
:103D400000BF2168143151E8001F21F001002168F3
:103D5000143141E80002002AF3D100BF00BF00BFC8
:103D60002168143151E8001F21F04000216814310E
:103D700041E80002002AF3D100BF202084F83E0071
:103D80000020206300BF00BF21680C3151E8001FF4
:103D900021F0100021680C3141E80002002AF3D123
:103DA00000BFA06BFDF784FCA08DE28D801A81B26C
:103DB0002046FFF7DEFE03E740E0A08DE18D401ACC
:103DC0001FFA80F8E08DC0B3B8F1000F35D000BF06
:103DD00000BF21680C3151E8001F21F49070216868
:103DE0000C3141E80002002AF3D100BF00BF00BF40
:103DF0002168143151E8001F21F0010021681431BD
:103E000041E80002002AF3D100BF202084F83E00E0
:103E10000020206300BF00BF21680C3151E8001F63
:103E200021F0100021680C3141E80002002AF3D192
:103E300000BF41462046FFF79CFEC1E605F080002A
:103E400030B106F0800018B1204602F0CCFDB7E694
:103E500005F0400030B106F0400018B1204602F0F5
:103E6000FBFBADE600BFABE6D965000810B5044624
:103E70000CB9012010BDA06900B100E000BF94F8AA
:103E80003D0028B9002084F83C00204600F028F8C6
:103E9000242084F83D002068C06820F40050216888
:103EA000C860204602F064FC2068006920F490405D
:103EB000216808612068406920F02A002168486173
:103EC0002068C06840F400502168C8600020206469
:103ED000202084F83D0084F83E000020CAE700005E
:103EE00010B586B00446142101A8FCF764FA854990
:103EF0002068884247D100BF0020009082480068B7
:103F000040F40020804908600846006800F4002062
:103F1000009000BF00BF00BF002000907A4810381A
:103F2000006840F0040078491039086008460068CD
:103F300000F00400009000BF00BF081501900220AF
:103F4000029001200390032004900820059001A90D
:103F50006E48FDF71BFE4FF40060019002200290B6
:103F600000200390032004900820059001A96748D1
:103F7000FDF70CFE002202213420FEF75BFC34200A
:103F8000FEF748FCBBE06249206888423BD100BF95
:103F9000002000905C48001D006840F010005A4965
:103FA000091D08600846006800F01000009000BF7E
:103FB00000BF00BF0020009053481038006840F058
:103FC00001005149103908600846006800F00100FE
:103FD000009000BF00BF4FF4C0600190022002902B
:103FE00000200390032004900720059001A9494870
:103FF000FDF7CCFD002203212520FEF71BFC252028
:10400000FEF708FC7BE044492068884239D100BFB4
:10401000002000903C48006840F480203A49086045
:104020000846006800F48020009000BF00BF00BF79
:104030000020009034481038006840F002003249F7
:10404000103908600846006800F00200009000BFC8
:1040500000BF4FF4406001900220029000200390C6
:10406000032004900720059001A92C48FDF78EFD40
:10407000002204212720FEF7DDFB2720FEF7CAFBE4
:104080003DE027492068884239D100BF00200090D8
:104090001D48001D006840F020001B49091D0860F4
:1040A0000846006800F02000009000BF00BF00BF7D
:1040B0000020009014481038006840F004001249B5
:1040C000103908600846006800F00400009000BF46
:1040D00000BFC02001900220029000200390032026
:1040E00004900820059001A90848FDF74FFD002223
:1040F00005214720FEF79EFB4720FEF78BFB06B00D
:1041000010BD0000004C0040403802400008024052
:10411000001001400000024000480040000402403E
:104120000014014070B504460D46164694F83E0052
:10413000202816D105B10EB9012070BD00BF94F83A
:104140003C00012801D10220F7E7012084F83C005F
:1041500000BF0020206332462946204602F01EFCA4
:10416000EBE70220E9E700000649884202D101217D
:10417000054A11700549884202D10121044A117093
:1041800070470000A4050020D4000020E8050020AE
:104190002C0100202DE9F84F04460E46174699469B
:1041A0004FF0000A94F83D0020285AD106B117B903
:1041B0000120BDE8F88F00BF94F83C00012801D130
:1041C0000220F6E7012084F83C0000BF00202064B4
:1041D000212084F83D00FDF7D9FD8246A784E784BD
:1041E000A068B0F5805F04D1206910B90025B04601
:1041F00002E035464FF0000800BF002084F83C0084
:1042000000BF1BE05346002280212046CDF80090DD
:1042100002F019FC08B10320CBE745B9B8F800005B
:10422000C0F308002168486008F1020803E028781C
:10423000216848606D1CE08C401EE084E08C002802
:10424000E0D15346002240212046CDF8009002F0F4
:10425000FAFB08B10320ACE7202084F83D000020E1
:10426000A7E70220A5E7704700BFFEE70146086800
:104270004069C0F38020B0B16FF480600A6850617B
:1042800000200863202081F83D00002081F83E00D6
:10429000086C40F00400086400BF002081F83C0076
:1042A00000BF012070470020FCE700002DE9F84323
:1042B00004460F4615469946DDE9088620680068E1
:1042C00040F48060216808602068006840F48070D5
:1042D00021680860434600224FF0011120460096F5
:1042E00000F032F960B12068006800F48070B0F529
:1042F000807F02D14FF4007020640320BDE8F88372
:1043000007F0FE0021680861334642463E492046D8
:1043100000F05DF908B10120F0E700BF0020009037
:1043200020684069009020688069009000BF00BF4D
:1043300032464146204600F0ECF950B1206C04288A
:1043400005D12068006840F40070216808600120F1
:10435000D4E7B9F1010F03D1E8B22168086117E091
:10436000C5F307202168086132464146204600F027
:10437000D0F950B1206C042805D12068006840F4C1
:104380000070216808600120B8E7E8B22168086180
:1043900032464146204600F0BCF950B1206C04285A
:1043A00005D12068006840F4007021680860012091
:1043B000A4E72068006840F48070216808604346E4
:1043C00000224FF001112046009600F0BDF858B1D0
:1043D0002068006800F48070B0F5807F02D14FF44F
:1043E00000702064032089E7F8B240F001002168E2
:1043F0000861334642460449204600F0E8F808B117
:1044000001207BE7002079E7020001002DE9F84355
:104410000446884615469946DDE908672068006825
:1044200040F4807021680860334600224FF001118B
:104430002046009700F088F860B12068006800F41A
:104440008070B0F5807F02D14FF4007020640320AB
:10445000BDE8F88308F0FE00216808613B4632465B
:104460002149204600F0B3F808B10120F0E700BF71
:1044700000200090206840690090206880690090CA
:1044800000BF00BF3A463146204600F042F950B125
:10449000206C042805D12068006840F40070216871
:1044A00008600120D4E7B9F1010F03D1E8B2216817
:1044B000086117E0C5F30720216808613A463146D4
:1044C000204600F026F950B1206C042805D1206860
:1044D000006840F40070216808600120B8E7E8B285
:1044E000216808610020B3E70200010070B50446AE
:1044F0000D46164620E02046FFF7B8FE08B1012021
:1045000070BD681CC0B1FDF741FC801BA84200D8FB
:1045100095B900202063202084F83D00002084F815
:104520003E00206C40F02000206400BF002084F892
:104530003C0000BF0120E3E720684069C0F3800031
:104540000028D8D00020DBE72DE9F04104460D46D5
:1045500017461E46DDF818801CE0701CD0B1FDF730
:1045600015FCA0EB0800B04200D89EB900202063E3
:10457000202084F83D00002084F83E00206C40F0AC
:104580002000206400BF002084F83C0000BF012010
:10459000BDE8F081C5F3074001280AD120684069D1
:1045A000A9B20840A9B2884201D101200BE0002045
:1045B00009E020688069A9B20840A9B2884201D107
:1045C000012000E00020B842C7D00020E0E72DE93C
:1045D000F04104460D4616461F463DE020684069FE
:1045E000C0F38020E8B12068006840F400702168C2
:1045F00008606FF4806021684861002020632020FB
:1046000084F83D00002084F83E00206C40F0040057
:10461000206400BF002084F83C0000BF0120BDE8FA
:10462000F081701CC0B1FDF7B1FBC01BB04200D8D7
:1046300096B900202063202084F83D00002084F8F3
:104640003E00206C40F02000206400BF002084F871
:104650003C0000BF0120E2E7C5F3074001280AD172
:1046600020684069A9B20840A9B2884201D101205E
:104670000BE0002009E020688069A9B20840A9B2D7
:10468000884201D1012000E000200028A6D00020AF
:10469000C5E770B504460D46164632E0206840690D
:1046A000C0F30010A0B16FF0100021684861002035
:1046B0002063202084F83D00002084F83E00206C18
:1046C000206400BF002084F83C0000BF012070BDC2
:1046D000FDF75CFB801BA84200D895B90020206341
:1046E000202084F83D00002084F83E00206C40F03B
:1046F0002000206400BF002084F83C0000BF01209F
:10470000E5E720684069C0F380100028C6D000208B
:10471000DDE770B504460D46164620E02046FFF75B
:10472000A5FD08B1012070BD681CC0B1FDF72EFBCE
:10473000801BA84200D895B900202063202084F86F
:104740003D00002084F83E00206C40F020002064F2
:1047500000BF002084F83C0000BF0120E3E7206890
:104760004069C0F3C0100028D8D00020DBE730B586
:1047700003461C788C545D78541C0D559D78941C10
:104780000D55DD78D41C0D5530BD10B500F028F85E
:1047900000F018F800F002F810BD000010B501227A
:1047A00011030248FDF7ECFA10BD000000040240BE
:1047B00010B500224FF480510148FDF7E1FA10BD19
:1047C0000004024010B5012251030248FDF7D8FA57
:1047D00010BD00000004024010B5FFF7D6FF10BD69
:1047E00010B5012291030248FDF7CAFA10BD00007E
:1047F0000004024010B5012220218148FDF7C0FAD3
:1048000000218048FFF7CCF800207F4908754860F8
:10481000888108608860012210217C48FDF7B0FA89
:1048200000217B48FFF7BCF800207A4908754860F2
:104830008881086088607848FEF7B2FC04217748D8
:10484000FEF7F0FD04217648FEF7ECFD00207349E9
:10485000096848627249096848622C2004F088FEA1
:10486000694988619FED6F0A0846806980ED040AF6
:104870009FED6D0A0846806980ED050A9FED6A0A82
:104880000846806980ED060A9FED680A084680693F
:1048900080ED080A9FED660A0846806980ED0A0AE5
:1048A0002C2004F065FE5849C8619FED5E0A084659
:1048B000C06980ED040A9FED5C0A0846C06980ED7E
:1048C000050A9FED590A0846C06980ED060A9FED6A
:1048D000570A0846C06980ED080A9FED550A084648
:1048E000C06980ED0A0A2C2004F042FE46490862A5
:1048F0009FED500A0846006A80ED040A9FED4A0ABF
:104900000846006A80ED050A9FED470A0846006ADE
:1049100080ED060A9FED450A0846006A80ED080A08
:104920009FED430A0846006A80ED0A0A2C2004F035
:104930001FFE384988619FED3C0A0846806980ED7A
:10494000040A9FED390A0846806980ED050A9FED4B
:10495000360A0846806980ED060A9FED370A084648
:10496000806980ED080A9FED350A0846806980ED70
:104970000A0A2C2004F0FCFD2649C8619FED2A0A92
:104980000846C06980ED040A9FED270A0846C06901
:1049900080ED050A9FED240A0846C06980ED060AED
:1049A0009FED250A0846C06980ED080A9FED230A9D
:1049B0000846C06980ED0A0A2C2004F0D9FD15498B
:1049C00008629FED190A0846006A80ED040A9FED0F
:1049D000160A0846006A80ED050A9FED130A08468C
:1049E000006A80ED060A9FED140A0846006A80ED11
:1049F000080A9FED120A0846006A80ED0A0A10BDF7
:104A000000040240F40300202407002000000240BC
:104A10003C040020480700201405002084040020E6
:104A2000CC040020ACC52737000000000000FA4489
:104A30000000BE428FC2F53D00007A440000A04253
:104A400070B52DED0C8B8EB004460D461646B7EEB4
:104A5000000AF0EE409A9FED7C0AB0EE408A9FED8E
:104A60007A0AF0EE408A9FED780AB0EE409A07A8E5
:104A700008A90DAB03AACDE9001009A90BA803F002
:104A8000EDFC20B101200EB0BDEC0C8B70BDBDF86B
:104A9000200000F4807000287ED09DED030AB8EE5F
:104AA000C00ADFED6A0A80EE201AF0EE419A9DED11
:104AB000040AB8EEC00ADFED650A80EE201AB0EEF7
:104AC000418A9DED050AB8EEC00ADFED600A80EE6E
:104AD000201AF0EE418A9DED060AB8EEC00ADFED1D
:104AE0005B0A80EE201AB0EE419AB8EE000A28EE7A
:104AF000000A20EE090AF0EE000A69EEA00A00EEB4
:104B0000A80A10EE101A0846FBF706FE41EC1C0B33
:104B1000B0EE4C0AF0EE6C0A02F02EF9B0EE40BA9C
:104B2000F0EE60BA9FED4A0B53EC102B51EC1B0BCF
:104B3000FBF700FD41EC1A0BFBF732FE2060B8EEEC
:104B4000000A28EE000A20EE080AF0EE000A68EEDD
:104B5000A00A00EEE80AF7EE000A30EE200A10EE96
:104B6000101A0846FBF7D8FD41EC1C0BB0EE000A0A
:104B700028EE800A20EE090AF0EE000A69EEA00A8B
:104B800000EE880A10EE101A0846FBF7C5FD41EC4E
:104B90001D0BB0EE4C1A00E052E0F0EE6C1AB0EED5
:104BA0004D0AF0EE6D0A02F003FCB0EE40BAF0EEF2
:104BB00060BA9FED270B53EC102B51EC1B0BFBF74E
:104BC000B9FC41EC1A0BFBF7EBFD286029EEA90AB2
:104BD00008EE080A08EEE80A09EE490A10EE101A73
:104BE0000846FBF799FD41EC1C0B28EE280A09EE5C
:104BF000890AF0EE000A20EE200A10EE101A08468C
:104C0000FBF78AFD41EC1D0BB0EE4C1AF0EE6C1A6E
:104C1000B0EE4D0AF0EE6D0A02F0CAFBB0EE40BAFB
:104C2000F0EE60BA9FED0A0B53EC102B51EC1B0B0E
:104C3000FBF780FC41EC1A0BFBF7B2FD306001E0A2
:104C4000022020E700201EE7000000000000804E48
:104C50006666666666A64C4038B50024684604F071
:104C6000D7FD002840D1782005F06AFBC4B20CB112
:104C7000012038BD782004F0B1FCC4B20CB1022090
:104C8000F7E7C82005F00EFBC4B20CB10320F0E733
:104C900003F0D8FBC4B20CB10420EAE7134804F0D7
:104CA000CBFB054603F02AFEC4B20CB10520E0E7B9
:104CB00040F2731003F06EFAC4B20CB10620D8E7CC
:104CC000C82003F04BFDC4B20CB10720D1E706F0B9
:104CD00071FA04460CB10820CBE7012005F0DEF99B
:104CE000C4B20CB10920C4E70020C2E7AC00002028
:104CF0001CB50446062269463B2000F0D9F89DF811
:104D000001009DF8001040EA012000B220809DF8CB
:104D100003009DF8021040EA012000B260809DF877
:104D200005009DF8041040EA012000B2A0801CBDDF
:104D30001CB5044606226946432000F0B9F89DF8E8
:104D400001009DF8001040EA012000B220809DF88B
:104D500003009DF8021040EA012000B260809DF837
:104D600005009DF8041040EA012000B2A0801CBD9F
:104D700008B50020009001226946752000F098F8DF
:104D80009DF80000682806D09DF800100BA001F0E7
:104D9000A9FF002008BD01216B2000F0DDF80021F3
:104DA0006C2000F0D9F8C82000F0BAF89DF8001087
:104DB00011A001F097FF0120ECE70000BCECB2E28B
:104DC000B2BBB5BD204D50553630353020C4A3BFE1
:104DD000E9A3ACC7EBBCECB2E9C4A3BFE9D3EBBF1A
:104DE000AAB7A2B0E5B5C4BDD3CFDF2C2D2D2D2D94
:104DF0002D2D25640D0A00004D50553630353020DC
:104E00004944203D20307825780D0A00B7EE000A8D
:104E10000E4880ED000A9FED0E0A80ED010A9FED1D
:104E20000C0A80ED020A9FED0A0A80ED030A9FED4D
:104E3000080A084880ED000A9FED050A80ED010A86
:104E40009FED030A80ED020A70470000BC000020BD
:104E500000000000A407002010B56420FCF772FEDB
:104E600080216B2000F078F86420FCF76BFE0021B5
:104E70006B2000F071F8032000F02DF8002000F006
:104E800022F8C82000F04CF80121382000F064F826
:104E900000216A2000F060F80021232000F05CF877
:104EA0008021372000F058F8FFF762FF044610BD5C
:104EB00070B504460D4616462B4632462146D02094
:104EC00001F010F870BD10B50446E006010E1C207C
:104ED00000F042F810BD10B50446E006010E1B209C
:104EE00000F03AF810BD70B504460025BC2C01DB7B
:104EF000012510E0622C01DB02250CE02A2C01DBED
:104F0000032508E0142C01DB042504E00A2C01DB56
:104F1000052500E0062529461A2000F01DF870BD81
:104F200070B50446B4F57A7F01DD4FF47A74042C31
:104F300000DA04244FF47A7090FBF4F0401EC5B2FE
:104F40002946192000F008F8264604EBD671C1F373
:104F50004F00FFF7C8FF70BD13B5044601AB012237
:104F60002146D02000F0EEFF1CBD00001FB5002040
:104F700000900190029003901548164908604FF484
:104F800040304860002113488160012101610176B1
:104F9000002180F82010C1620F4981620021C160A8
:104FA0000121C16180F830104161FCF7D7F908B1E7
:104FB000FCF7D2F810200090012001900720029009
:104FC00069460448FCF700F908B1FCF7C5F81FBDB5
:104FD00000200140FC0100200100000F1FB500204F
:104FE00000900190029003901548164908604FF414
:104FF0004030486000211348816001210161017641
:10500000002180F82010C1620F4981620021C16037
:105010000121C16180F830104161FCF79FF908B1AE
:10502000FCF79AF80F2000900120019007200290D1
:1050300069460448FCF7C8F808B1FCF78DF81FBDB5
:1050400000210140440200200100000F08B500BF0C
:10505000002000900E48006840F480000C49086071
:105060000846006800F48000009000BF00BF0022E6
:1050700005213820FDF7DEFB3820FDF7CBFB0022B1
:1050800005213A20FDF7D6FB3A20FDF7C3FB08BD0A
:105090003038024010B50E4A00210E4805F060FA83
:1050A0000D4908600D4A00210D4805F059FA0D49D7
:1050B00008600D4A00210D4805F052FA0C490860BD
:1050C0000C4A00210C4805F04BFA0C49086010BD51
:1050D00050C60008DD6000080000002074C600080B
:1050E000356000080400002098C60008CD60000864
:1050F00008000020BCC60008256000080C00002045
:1051000000B587B0142102A8FBF755F900BF0020B5
:1051100001904148006840F004003F49086008469B
:10512000006800F00400019000BF00BF00BF002035
:1051300001900846006840F080000860084600685A
:1051400000F08000019000BF00BF00BF0020019070
:105150000846006840F0010008600846006800F05A
:105160000100019000BF00BF00BF00200190084671
:10517000006840F0020008600846006800F0020085
:10518000019000BF00BF002212212448FCF7F8FD67
:10519000002290212248FCF7F3FD002247F2300163
:1051A0002048FCF7EDFD1220029001200390002022
:1051B0000490059002A91948FCF7E8FC90200290A1
:1051C0000120039000200490059002A91448FCF7E8
:1051D000DDFC47F230000290012003900020049093
:1051E000059002A90F48FCF7D1FC4FF480700290A3
:1051F0004FF4041003900120049002A90748FCF723
:10520000C5FC002205211720FDF714FB1720FDF730
:1052100001FB07B000BD000030380240000802402A
:10522000000002400004024010B50B480B49086022
:105230000B484860002109488160C1604FF48041FB
:105240000161002141618161C1610162FCF7A8FD3A
:1052500008B1FBF781FF10BD005400404C03002053
:10526000801A060010B50B480B4908600B484860CF
:10527000002109488160C1604FF480410161002133
:1052800041618161C1610162FCF78AFD08B1FBF7F0
:1052900063FF10BD005C0040A0030020801A0600E0
:1052A00000B589B00020079008901C216846FBF7E4
:1052B00082F84FF0804018490860002048600021C3
:1052C0001548816041F26701C1600021016181617F
:1052D000FEF7EBFA08B1FBF73FFF002007900890BC
:1052E00007A90D48FDF7AAFE08B1FBF735FF6020BE
:1052F00000900020019002200290042004900022DF
:1053000069460548FEF74FFA08B1FBF725FF02484A
:10531000FEF7D2F909B000BDF403002000B589B052
:105320000020079008901C216846FBF744F81848B5
:1053300018490860A720486000211648816040F2A3
:10534000E731C160002101618161FEF7AEFA08B169
:10535000FBF702FF00200790089007A90D48FDF712
:105360006DFE08B1FBF7F8FE602000900020019070
:1053700002900490002269460648FEF714FA08B12C
:10538000FBF7EAFE0348FEF797F909B000BD0000FD
:10539000000400403C04002000B58BB0242102A88A
:1053A000FBF709F80020009001901948194908609E
:1053B000002048600021174881604FF6FF71C160EE
:1053C00000210161816103200290002003900120EF
:1053D0000490002005900A200690002007900120EC
:1053E0000890002009900A200A9002A90948FDF7B8
:1053F0002BFF08B1FBF7B0FE00200090019069463A
:105400000448FDF71BFE08B1FBF7A6FE0BB000BD7C
:10541000000800408404002000B58BB0242102A8BD
:10542000FAF7C9FF00200090019019481949086057
:10543000002048600021174881604FF6FF71C1606D
:10544000002101618161032002900020039001206E
:105450000490002005900A2006900020079001206B
:105460000890002009900A200A9002A90948FDF737
:10547000EBFE08B1FBF770FE00200090019069463A
:105480000448FDF7DBFD08B1FBF766FE0BB000BD7D
:10549000000C0040CC0400201CB5002000900190BE
:1054A0000E480F49086040F24730486000210C4820
:1054B000816040F2E731C16000218161FDF718FE93
:1054C00008B1FBF749FE00200090019069460448AE
:1054D000FDF7B4FD08B1FBF73FFE1CBD0010004016
:1054E0001405002000B587B01C216846FAF763FF59
:1054F00017481849086040F28F604860002115483D
:10550000816040F2CF71C160002101618161FEF7CD
:10551000CCF908B1FBF720FE60200090002001903C
:1055200002900490002269460A48FEF73CF908B14F
:10553000FBF712FE042269460648FEF734F908B16B
:10554000FBF70AFE0348FEF7B7F807B000BD0000FE
:10555000004001405C05002010B50B480B49086075
:105560004FF4E1304860002108488160C16001616A
:105570000C21416100218161C161FEF777FC08B116
:10558000FBF7EAFD10BD0000004C0040A405002020
:1055900010B50B480B4908604FF46130486000219A
:1055A00008488160C16001610C2141610021816175
:1055B000C161FEF75BFC08B1FBF7CEFD10BD00003A
:1055C00000100140E805002010B50B480B490860A9
:1055D0004FF4E1304860002108488160C1600161FA
:1055E0000C21416100218161C161FEF73FFC08B1DE
:1055F000FBF7B2FD10BD0000004800402C06002063
:1056000010B50B480B4908604FF4E13048600021A9
:1056100008488160C16001610C2141610021816104
:10562000C161FEF723FC08B1FBF796FD10BD000039
:10563000001401407006002000BFFEE710B50122F3
:1056400010210248FCF79CFB10BD00000004024042
:1056500010B5002210210248FCF792FB10BD00009B
:105660000004024010B5002220210248FCF788FB0C
:1056700010BD00000004024010B500228021044843
:10568000FCF77EFB012210210248FCF779FB10BDDC
:10569000000002400008024010B5012280210448A9
:1056A000FCF76EFB002210210248FCF769FB10BDDD
:1056B000000002400008024000BFFEE770B5002471
:1056C00015E004F1B001C8B200F0A4F9002000F028
:1056D000A1F9102000F09EF9002504E0002000F060
:1056E000ADF9681CC5B2802DF8DB601CC4B2082C73
:1056F000E7DB70BD10B5C820FCF724FA002400BF1A
:1057000005E00449085D00F085F9601CC4B2172C5F
:10571000F7DB10BD9000002070B504460D4605F182
:10572000B001C8B200F076F9102141EA141000F07F
:1057300071F904F00F0000F06DF970BD2DE9F0472C
:1057400080460E4691469A46089F00250024A9F1FE
:105750002000C5B2B8F17F0F02DDA046B01CC6B272
:10576000BAF1100F37D131464046FFF7D5FF00247C
:1057700011E047B104EB0511274A515CC943C8B297
:1057800000F05CF905E004EB0511234A505C00F0E1
:1057900055F9601CC4B2082CEBDB701CC1B240464A
:1057A000FFF7BAFF002413E04FB104EB05110831F5
:1057B000194A515CC943C8B200F040F906E004EB55
:1057C00005110831144A505C00F038F9601CC4B26D
:1057D000082CE9DB1DE031464046FFF79DFF002421
:1057E00015E057B105EB45010C4A02EB4101095D9B
:1057F000C943C8B200F022F907E005EB4501074AAA
:1058000002EB4101085D00F019F9601CC4B2062CDE
:10581000E7DBBDE8F087000008C90008E0C6000823
:105820002DE9F84304460E4617461D46DDF8209044
:105830004FF0000822E0CDF8009017F808202B4622
:1058400031462046FFF77AFF0C2D02D1A01DC4B2CD
:1058500002E004F10800C4B27A2C04DD0C2D02D160
:105860000024701CC6B2782C04DD102D02D1002457
:10587000701CC6B208F1010000F0FF0817F808001C
:105880000028D8D1BDE8F8832DE9FF4F2DED020B9C
:105890002DED028B85B00746B0EE408A16469A463B
:1058A000DDE9165800200490B5EEC08AF1EE10FA3A
:1058B00007D2701CC6B201200490B1EE480AB0EEC7
:1058C000408ABDEEC80A10EE109A002436E0301B64
:1058D000401EC1B20A2004F0E2FDB9FBF0F00A213B
:1058E000B0FBF1F201FB120B0398A8B9701EA042A5
:1058F00012DDBBF1000F0DD105EBD571491001FB95
:105900000471C8B22B462022CDE900850A99FFF721
:1059100015FF11E00120039005EBD571491001FB43
:105920000471C8B20BF13001CAB22B46CDE9008533
:105930000A99FFF703FF00BF601CC4B2B442C6DB84
:1059400005EBD571491001FB0671C8B22B462E221A
:10595000CDE900850A99FFF7F1FE51460A2004F0CF
:105960009EFD00EE100AF8EE400A00EE109AB8EE26
:10597000C00A38EE400A20EE800ABDEEC00A8DED66
:10598000020A002421E0AAEB0400401EC1B20A2052
:1059900004F085FD0299B1FBF0F00A21B0FBF1F2B1
:1059A00001FB120B05EBD5714910A31901FB037123
:1059B000491DC8B20BF13001CAB22B46CDE90085B2
:1059C0000A99FFF7BBFE601CC4B25445DBDB0498A8
:1059D000012809D12B462D22CDF8008038460A999E
:1059E000FFF7ACFE0020049005B0BDEC028B06B0C2
:1059F000BDE8F08F08B500200C2303A201460090FB
:105A0000FFF70EFF08BD000048656C6C6F20576FF4
:105A1000726C640001B584B04FF48070012104AA57
:105A20000B46CDE900210290002278210248FCF7C4
:105A3000F5FC05B000BD00004C03002001B584B0AA
:105A40004FF48070012104AA0B46CDE90021029099
:105A5000402278210248FCF7E1FC05B000BD0000BF
:105A60004C03002010B50146002302201A4C206090
:105A70002BE019480068801E085CA52820D1164834
:105A80000068401E085C5A281AD113480068085C58
:105A90003A2815D110480068821E03E0885C18443B
:105AA000C3B2521C0C4800683730904201DD742AA2
:105AB000F4DB885C984201D1012010BD0020FCE796
:105AC00005480068401C044C2060034800687428A6
:105AD000CFDB0020F1E70000280100202DE9FF477F
